{
  "_format": "hh-sol-artifact-1",
  "contractName": "InfinityKeysAchievement",
  "sourceName": "contracts/IK/InfinityKeysAchievement.sol",
  "abi": [
    {
      "inputs": [
        {
          "internalType": "string",
          "name": "_name",
          "type": "string"
        },
        {
          "internalType": "string",
          "name": "_symbol",
          "type": "string"
        },
        {
          "internalType": "address",
          "name": "_signer",
          "type": "address"
        },
        {
          "internalType": "string",
          "name": "_secret",
          "type": "string"
        },
        {
          "internalType": "address",
          "name": "_endpoint",
          "type": "address"
        }
      ],
      "stateMutability": "nonpayable",
      "type": "constructor"
    },
    {
      "anonymous": false,
      "inputs": [
        {
          "indexed": true,
          "internalType": "address",
          "name": "account",
          "type": "address"
        },
        {
          "indexed": true,
          "internalType": "address",
          "name": "operator",
          "type": "address"
        },
        {
          "indexed": false,
          "internalType": "bool",
          "name": "approved",
          "type": "bool"
        }
      ],
      "name": "ApprovalForAll",
      "type": "event"
    },
    {
      "anonymous": false,
      "inputs": [
        {
          "indexed": true,
          "internalType": "uint256",
          "name": "tokenID",
          "type": "uint256"
        },
        {
          "indexed": true,
          "internalType": "address",
          "name": "account",
          "type": "address"
        },
        {
          "indexed": false,
          "internalType": "uint256",
          "name": "numberIdClaimed",
          "type": "uint256"
        }
      ],
      "name": "Claimed",
      "type": "event"
    },
    {
      "anonymous": false,
      "inputs": [
        {
          "indexed": true,
          "internalType": "contract IERC20",
          "name": "token",
          "type": "address"
        },
        {
          "indexed": false,
          "internalType": "address",
          "name": "to",
          "type": "address"
        },
        {
          "indexed": false,
          "internalType": "uint256",
          "name": "amount",
          "type": "uint256"
        }
      ],
      "name": "ERC20PaymentReleased",
      "type": "event"
    },
    {
      "anonymous": false,
      "inputs": [
        {
          "indexed": false,
          "internalType": "uint16",
          "name": "_srcChainId",
          "type": "uint16"
        },
        {
          "indexed": false,
          "internalType": "bytes",
          "name": "_srcAddress",
          "type": "bytes"
        },
        {
          "indexed": false,
          "internalType": "uint64",
          "name": "_nonce",
          "type": "uint64"
        },
        {
          "indexed": false,
          "internalType": "bytes",
          "name": "_payload",
          "type": "bytes"
        }
      ],
      "name": "MessageFailed",
      "type": "event"
    },
    {
      "anonymous": false,
      "inputs": [
        {
          "indexed": false,
          "internalType": "uint256",
          "name": "fee",
          "type": "uint256"
        }
      ],
      "name": "MessageFee",
      "type": "event"
    },
    {
      "anonymous": false,
      "inputs": [
        {
          "indexed": true,
          "internalType": "address",
          "name": "previousOwner",
          "type": "address"
        },
        {
          "indexed": true,
          "internalType": "address",
          "name": "newOwner",
          "type": "address"
        }
      ],
      "name": "OwnershipTransferred",
      "type": "event"
    },
    {
      "anonymous": false,
      "inputs": [
        {
          "indexed": false,
          "internalType": "address",
          "name": "account",
          "type": "address"
        },
        {
          "indexed": false,
          "internalType": "uint256",
          "name": "shares",
          "type": "uint256"
        }
      ],
      "name": "PayeeAdded",
      "type": "event"
    },
    {
      "anonymous": false,
      "inputs": [
        {
          "indexed": false,
          "internalType": "address",
          "name": "from",
          "type": "address"
        },
        {
          "indexed": false,
          "internalType": "uint256",
          "name": "amount",
          "type": "uint256"
        }
      ],
      "name": "PaymentReceived",
      "type": "event"
    },
    {
      "anonymous": false,
      "inputs": [
        {
          "indexed": false,
          "internalType": "address",
          "name": "to",
          "type": "address"
        },
        {
          "indexed": false,
          "internalType": "uint256",
          "name": "amount",
          "type": "uint256"
        }
      ],
      "name": "PaymentReleased",
      "type": "event"
    },
    {
      "anonymous": false,
      "inputs": [
        {
          "indexed": false,
          "internalType": "uint16",
          "name": "_srcChainId",
          "type": "uint16"
        },
        {
          "indexed": false,
          "internalType": "bytes",
          "name": "_from",
          "type": "bytes"
        },
        {
          "indexed": false,
          "internalType": "uint256",
          "name": "_tokenId",
          "type": "uint256"
        },
        {
          "indexed": false,
          "internalType": "address",
          "name": "_to",
          "type": "address"
        }
      ],
      "name": "ReceiveNFT",
      "type": "event"
    },
    {
      "anonymous": false,
      "inputs": [
        {
          "indexed": true,
          "internalType": "address",
          "name": "operator",
          "type": "address"
        },
        {
          "indexed": true,
          "internalType": "address",
          "name": "from",
          "type": "address"
        },
        {
          "indexed": true,
          "internalType": "address",
          "name": "to",
          "type": "address"
        },
        {
          "indexed": false,
          "internalType": "uint256[]",
          "name": "ids",
          "type": "uint256[]"
        },
        {
          "indexed": false,
          "internalType": "uint256[]",
          "name": "values",
          "type": "uint256[]"
        }
      ],
      "name": "TransferBatch",
      "type": "event"
    },
    {
      "anonymous": false,
      "inputs": [
        {
          "indexed": true,
          "internalType": "address",
          "name": "operator",
          "type": "address"
        },
        {
          "indexed": true,
          "internalType": "address",
          "name": "from",
          "type": "address"
        },
        {
          "indexed": true,
          "internalType": "address",
          "name": "to",
          "type": "address"
        },
        {
          "indexed": false,
          "internalType": "uint256",
          "name": "id",
          "type": "uint256"
        },
        {
          "indexed": false,
          "internalType": "uint256",
          "name": "value",
          "type": "uint256"
        }
      ],
      "name": "TransferSingle",
      "type": "event"
    },
    {
      "anonymous": false,
      "inputs": [
        {
          "indexed": false,
          "internalType": "string",
          "name": "value",
          "type": "string"
        },
        {
          "indexed": true,
          "internalType": "uint256",
          "name": "id",
          "type": "uint256"
        }
      ],
      "name": "URI",
      "type": "event"
    },
    {
      "inputs": [
        {
          "internalType": "address",
          "name": "addr",
          "type": "address"
        }
      ],
      "name": "addAuthorizedAccount",
      "outputs": [],
      "stateMutability": "nonpayable",
      "type": "function"
    },
    {
      "inputs": [
        {
          "internalType": "bool",
          "name": "_claimable",
          "type": "bool"
        },
        {
          "internalType": "enum InfinityKeysAchievement.GateState",
          "name": "_gateState",
          "type": "uint8"
        },
        {
          "internalType": "string",
          "name": "_tokenURI",
          "type": "string"
        }
      ],
      "name": "addToken",
      "outputs": [],
      "stateMutability": "nonpayable",
      "type": "function"
    },
    {
      "inputs": [
        {
          "internalType": "uint256",
          "name": "_tokenID",
          "type": "uint256"
        },
        {
          "internalType": "address",
          "name": "_address",
          "type": "address"
        }
      ],
      "name": "airdrop",
      "outputs": [],
      "stateMutability": "nonpayable",
      "type": "function"
    },
    {
      "inputs": [
        {
          "internalType": "address",
          "name": "account",
          "type": "address"
        },
        {
          "internalType": "uint256",
          "name": "id",
          "type": "uint256"
        }
      ],
      "name": "balanceOf",
      "outputs": [
        {
          "internalType": "uint256",
          "name": "",
          "type": "uint256"
        }
      ],
      "stateMutability": "view",
      "type": "function"
    },
    {
      "inputs": [
        {
          "internalType": "address[]",
          "name": "accounts",
          "type": "address[]"
        },
        {
          "internalType": "uint256[]",
          "name": "ids",
          "type": "uint256[]"
        }
      ],
      "name": "balanceOfBatch",
      "outputs": [
        {
          "internalType": "uint256[]",
          "name": "",
          "type": "uint256[]"
        }
      ],
      "stateMutability": "view",
      "type": "function"
    },
    {
      "inputs": [
        {
          "internalType": "uint256",
          "name": "_tokenID",
          "type": "uint256"
        },
        {
          "internalType": "address",
          "name": "_address",
          "type": "address"
        }
      ],
      "name": "checkIfClaimed",
      "outputs": [
        {
          "internalType": "bool",
          "name": "",
          "type": "bool"
        }
      ],
      "stateMutability": "view",
      "type": "function"
    },
    {
      "inputs": [
        {
          "internalType": "uint256",
          "name": "_tokenID",
          "type": "uint256"
        },
        {
          "internalType": "bytes",
          "name": "_signature",
          "type": "bytes"
        }
      ],
      "name": "claim",
      "outputs": [],
      "stateMutability": "payable",
      "type": "function"
    },
    {
      "inputs": [
        {
          "internalType": "uint256",
          "name": "_tokenId",
          "type": "uint256"
        },
        {
          "internalType": "bool",
          "name": "_claimable",
          "type": "bool"
        },
        {
          "internalType": "enum InfinityKeysAchievement.GateState",
          "name": "_gateState",
          "type": "uint8"
        },
        {
          "internalType": "uint256",
          "name": "_internalGateID",
          "type": "uint256"
        },
        {
          "internalType": "address",
          "name": "_externalGateContract",
          "type": "address"
        },
        {
          "internalType": "string",
          "name": "_tokenURI",
          "type": "string"
        }
      ],
      "name": "editToken",
      "outputs": [],
      "stateMutability": "nonpayable",
      "type": "function"
    },
    {
      "inputs": [
        {
          "internalType": "uint256",
          "name": "_tokenId",
          "type": "uint256"
        },
        {
          "internalType": "string",
          "name": "_tokenURI",
          "type": "string"
        }
      ],
      "name": "editTokenURI",
      "outputs": [],
      "stateMutability": "nonpayable",
      "type": "function"
    },
    {
      "inputs": [
        {
          "internalType": "uint256",
          "name": "_tokenID",
          "type": "uint256"
        }
      ],
      "name": "exists",
      "outputs": [
        {
          "internalType": "bool",
          "name": "",
          "type": "bool"
        }
      ],
      "stateMutability": "view",
      "type": "function"
    },
    {
      "inputs": [
        {
          "internalType": "uint16",
          "name": "",
          "type": "uint16"
        },
        {
          "internalType": "bytes",
          "name": "",
          "type": "bytes"
        },
        {
          "internalType": "uint256",
          "name": "",
          "type": "uint256"
        }
      ],
      "name": "failedMessages",
      "outputs": [
        {
          "internalType": "uint256",
          "name": "payloadLength",
          "type": "uint256"
        },
        {
          "internalType": "bytes32",
          "name": "payloadHash",
          "type": "bytes32"
        }
      ],
      "stateMutability": "view",
      "type": "function"
    },
    {
      "inputs": [],
      "name": "gasForDestinationLzReceive",
      "outputs": [
        {
          "internalType": "uint256",
          "name": "",
          "type": "uint256"
        }
      ],
      "stateMutability": "view",
      "type": "function"
    },
    {
      "inputs": [
        {
          "internalType": "address",
          "name": "account",
          "type": "address"
        },
        {
          "internalType": "address",
          "name": "operator",
          "type": "address"
        }
      ],
      "name": "isApprovedForAll",
      "outputs": [
        {
          "internalType": "bool",
          "name": "",
          "type": "bool"
        }
      ],
      "stateMutability": "view",
      "type": "function"
    },
    {
      "inputs": [
        {
          "internalType": "address",
          "name": "addr",
          "type": "address"
        }
      ],
      "name": "isAuthorized",
      "outputs": [
        {
          "internalType": "bool",
          "name": "",
          "type": "bool"
        }
      ],
      "stateMutability": "view",
      "type": "function"
    },
    {
      "inputs": [
        {
          "internalType": "uint256",
          "name": "_tokenID",
          "type": "uint256"
        }
      ],
      "name": "isSaleOpen",
      "outputs": [
        {
          "internalType": "bool",
          "name": "",
          "type": "bool"
        }
      ],
      "stateMutability": "view",
      "type": "function"
    },
    {
      "inputs": [
        {
          "internalType": "uint16",
          "name": "_srcChainId",
          "type": "uint16"
        },
        {
          "internalType": "bytes",
          "name": "_srcAddress",
          "type": "bytes"
        },
        {
          "internalType": "uint64",
          "name": "_nonce",
          "type": "uint64"
        },
        {
          "internalType": "bytes",
          "name": "_payload",
          "type": "bytes"
        }
      ],
      "name": "lzReceive",
      "outputs": [],
      "stateMutability": "nonpayable",
      "type": "function"
    },
    {
      "inputs": [],
      "name": "name",
      "outputs": [
        {
          "internalType": "string",
          "name": "",
          "type": "string"
        }
      ],
      "stateMutability": "view",
      "type": "function"
    },
    {
      "inputs": [],
      "name": "numberTokens",
      "outputs": [
        {
          "internalType": "uint256",
          "name": "",
          "type": "uint256"
        }
      ],
      "stateMutability": "view",
      "type": "function"
    },
    {
      "inputs": [
        {
          "internalType": "uint16",
          "name": "_srcChainId",
          "type": "uint16"
        },
        {
          "internalType": "bytes",
          "name": "_srcAddress",
          "type": "bytes"
        },
        {
          "internalType": "uint64",
          "name": "_nonce",
          "type": "uint64"
        },
        {
          "internalType": "bytes",
          "name": "_payload",
          "type": "bytes"
        }
      ],
      "name": "onLzReceive",
      "outputs": [],
      "stateMutability": "nonpayable",
      "type": "function"
    },
    {
      "inputs": [],
      "name": "owner",
      "outputs": [
        {
          "internalType": "address",
          "name": "",
          "type": "address"
        }
      ],
      "stateMutability": "view",
      "type": "function"
    },
    {
      "inputs": [
        {
          "internalType": "uint256",
          "name": "index",
          "type": "uint256"
        }
      ],
      "name": "payee",
      "outputs": [
        {
          "internalType": "address",
          "name": "",
          "type": "address"
        }
      ],
      "stateMutability": "view",
      "type": "function"
    },
    {
      "inputs": [
        {
          "internalType": "address payable",
          "name": "account",
          "type": "address"
        }
      ],
      "name": "release",
      "outputs": [],
      "stateMutability": "nonpayable",
      "type": "function"
    },
    {
      "inputs": [
        {
          "internalType": "contract IERC20",
          "name": "token",
          "type": "address"
        },
        {
          "internalType": "address",
          "name": "account",
          "type": "address"
        }
      ],
      "name": "release",
      "outputs": [],
      "stateMutability": "nonpayable",
      "type": "function"
    },
    {
      "inputs": [
        {
          "internalType": "contract IERC20",
          "name": "token",
          "type": "address"
        },
        {
          "internalType": "address",
          "name": "account",
          "type": "address"
        }
      ],
      "name": "released",
      "outputs": [
        {
          "internalType": "uint256",
          "name": "",
          "type": "uint256"
        }
      ],
      "stateMutability": "view",
      "type": "function"
    },
    {
      "inputs": [
        {
          "internalType": "address",
          "name": "account",
          "type": "address"
        }
      ],
      "name": "released",
      "outputs": [
        {
          "internalType": "uint256",
          "name": "",
          "type": "uint256"
        }
      ],
      "stateMutability": "view",
      "type": "function"
    },
    {
      "inputs": [
        {
          "internalType": "address",
          "name": "addr",
          "type": "address"
        }
      ],
      "name": "removeAuthorizedAccount",
      "outputs": [],
      "stateMutability": "nonpayable",
      "type": "function"
    },
    {
      "inputs": [],
      "name": "renounceOwnership",
      "outputs": [],
      "stateMutability": "nonpayable",
      "type": "function"
    },
    {
      "inputs": [
        {
          "internalType": "uint16",
          "name": "_srcChainId",
          "type": "uint16"
        },
        {
          "internalType": "bytes",
          "name": "_srcAddress",
          "type": "bytes"
        },
        {
          "internalType": "uint64",
          "name": "_nonce",
          "type": "uint64"
        },
        {
          "internalType": "bytes",
          "name": "_payload",
          "type": "bytes"
        }
      ],
      "name": "retryMessage",
      "outputs": [],
      "stateMutability": "payable",
      "type": "function"
    },
    {
      "inputs": [
        {
          "internalType": "address",
          "name": "from",
          "type": "address"
        },
        {
          "internalType": "address",
          "name": "to",
          "type": "address"
        },
        {
          "internalType": "uint256[]",
          "name": "ids",
          "type": "uint256[]"
        },
        {
          "internalType": "uint256[]",
          "name": "amounts",
          "type": "uint256[]"
        },
        {
          "internalType": "bytes",
          "name": "data",
          "type": "bytes"
        }
      ],
      "name": "safeBatchTransferFrom",
      "outputs": [],
      "stateMutability": "nonpayable",
      "type": "function"
    },
    {
      "inputs": [
        {
          "internalType": "address",
          "name": "from",
          "type": "address"
        },
        {
          "internalType": "address",
          "name": "to",
          "type": "address"
        },
        {
          "internalType": "uint256",
          "name": "id",
          "type": "uint256"
        },
        {
          "internalType": "uint256",
          "name": "amount",
          "type": "uint256"
        },
        {
          "internalType": "bytes",
          "name": "data",
          "type": "bytes"
        }
      ],
      "name": "safeTransferFrom",
      "outputs": [],
      "stateMutability": "nonpayable",
      "type": "function"
    },
    {
      "inputs": [
        {
          "internalType": "address",
          "name": "operator",
          "type": "address"
        },
        {
          "internalType": "bool",
          "name": "approved",
          "type": "bool"
        }
      ],
      "name": "setApprovalForAll",
      "outputs": [],
      "stateMutability": "nonpayable",
      "type": "function"
    },
    {
      "inputs": [
        {
          "internalType": "uint256",
          "name": "newVal",
          "type": "uint256"
        }
      ],
      "name": "setGasForDestinationLzReceive",
      "outputs": [],
      "stateMutability": "nonpayable",
      "type": "function"
    },
    {
      "inputs": [
        {
          "internalType": "string",
          "name": "_secret",
          "type": "string"
        }
      ],
      "name": "setSecret",
      "outputs": [],
      "stateMutability": "nonpayable",
      "type": "function"
    },
    {
      "inputs": [
        {
          "internalType": "address",
          "name": "_signer",
          "type": "address"
        }
      ],
      "name": "setSigner",
      "outputs": [],
      "stateMutability": "nonpayable",
      "type": "function"
    },
    {
      "inputs": [
        {
          "internalType": "uint16",
          "name": "_chainId",
          "type": "uint16"
        },
        {
          "internalType": "bytes",
          "name": "_trustedRemote",
          "type": "bytes"
        }
      ],
      "name": "setTrustedRemote",
      "outputs": [],
      "stateMutability": "nonpayable",
      "type": "function"
    },
    {
      "inputs": [
        {
          "internalType": "address",
          "name": "account",
          "type": "address"
        }
      ],
      "name": "shares",
      "outputs": [
        {
          "internalType": "uint256",
          "name": "",
          "type": "uint256"
        }
      ],
      "stateMutability": "view",
      "type": "function"
    },
    {
      "inputs": [
        {
          "internalType": "bytes4",
          "name": "interfaceId",
          "type": "bytes4"
        }
      ],
      "name": "supportsInterface",
      "outputs": [
        {
          "internalType": "bool",
          "name": "",
          "type": "bool"
        }
      ],
      "stateMutability": "view",
      "type": "function"
    },
    {
      "inputs": [],
      "name": "symbol",
      "outputs": [
        {
          "internalType": "string",
          "name": "",
          "type": "string"
        }
      ],
      "stateMutability": "view",
      "type": "function"
    },
    {
      "inputs": [
        {
          "internalType": "uint256",
          "name": "",
          "type": "uint256"
        }
      ],
      "name": "tokens",
      "outputs": [
        {
          "internalType": "bool",
          "name": "claimable",
          "type": "bool"
        },
        {
          "internalType": "enum InfinityKeysAchievement.GateState",
          "name": "gate",
          "type": "uint8"
        },
        {
          "internalType": "uint256",
          "name": "internalGateID",
          "type": "uint256"
        },
        {
          "internalType": "address",
          "name": "externalGateContract",
          "type": "address"
        },
        {
          "internalType": "string",
          "name": "tokenURI",
          "type": "string"
        }
      ],
      "stateMutability": "view",
      "type": "function"
    },
    {
      "inputs": [
        {
          "internalType": "contract IERC20",
          "name": "token",
          "type": "address"
        }
      ],
      "name": "totalReleased",
      "outputs": [
        {
          "internalType": "uint256",
          "name": "",
          "type": "uint256"
        }
      ],
      "stateMutability": "view",
      "type": "function"
    },
    {
      "inputs": [],
      "name": "totalReleased",
      "outputs": [
        {
          "internalType": "uint256",
          "name": "",
          "type": "uint256"
        }
      ],
      "stateMutability": "view",
      "type": "function"
    },
    {
      "inputs": [],
      "name": "totalShares",
      "outputs": [
        {
          "internalType": "uint256",
          "name": "",
          "type": "uint256"
        }
      ],
      "stateMutability": "view",
      "type": "function"
    },
    {
      "inputs": [
        {
          "internalType": "uint256",
          "name": "id",
          "type": "uint256"
        }
      ],
      "name": "totalSupply",
      "outputs": [
        {
          "internalType": "uint256",
          "name": "",
          "type": "uint256"
        }
      ],
      "stateMutability": "view",
      "type": "function"
    },
    {
      "inputs": [],
      "name": "totalSupplyAll",
      "outputs": [
        {
          "internalType": "uint256[]",
          "name": "",
          "type": "uint256[]"
        }
      ],
      "stateMutability": "view",
      "type": "function"
    },
    {
      "inputs": [
        {
          "internalType": "address",
          "name": "newOwner",
          "type": "address"
        }
      ],
      "name": "transferOwnership",
      "outputs": [],
      "stateMutability": "nonpayable",
      "type": "function"
    },
    {
      "inputs": [
        {
          "internalType": "uint16",
          "name": "_chainID",
          "type": "uint16"
        },
        {
          "internalType": "uint256",
          "name": "_tokenID",
          "type": "uint256"
        }
      ],
      "name": "traverseChain",
      "outputs": [],
      "stateMutability": "payable",
      "type": "function"
    },
    {
      "inputs": [
        {
          "internalType": "uint16",
          "name": "",
          "type": "uint16"
        }
      ],
      "name": "trustedRemoteLookup",
      "outputs": [
        {
          "internalType": "bytes",
          "name": "",
          "type": "bytes"
        }
      ],
      "stateMutability": "view",
      "type": "function"
    },
    {
      "inputs": [
        {
          "internalType": "uint256",
          "name": "_tokenID",
          "type": "uint256"
        }
      ],
      "name": "uri",
      "outputs": [
        {
          "internalType": "string",
          "name": "",
          "type": "string"
        }
      ],
      "stateMutability": "view",
      "type": "function"
    },
    {
      "stateMutability": "payable",
      "type": "receive"
    }
  ],
  "bytecode": "0x6205573060095560a06040527371665b951a9eb87c8e6a8ef29a266fa578a78654608090815262000035906017906001620006b3565b50604080516020810190915260648152620000559060189060016200071d565b503480156200006357600080fd5b5060405162005985380380620059858339810160408190526200008691620008c4565b6017805480602002602001604051908101604052809291908181526020018280548015620000de57602002820191906000526020600020905b81546001600160a01b03168152600190910190602001808311620000bf575b505050505060188054806020026020016040519081016040528092919081815260200182805480156200013157602002820191906000526020600020905b8154815260200190600101908083116200011c575b50505050506040518060400160405280601b81526020017f68747470733a2f2f7777772e696e66696e6974796b6579732e696f000000000081525062000186620001806200038b60201b60201c565b6200038f565b60018060006200019e6000546001600160a01b031690565b6001600160a01b031681526020810191909152604001600020805460ff1916911515919091179055620001d181620003df565b508051825114620002445760405162461bcd60e51b815260206004820152603260248201527f5061796d656e7453706c69747465723a2070617965657320616e6420736861726044820152710cae640d8cadccee8d040dad2e6dac2e8c6d60731b60648201526084015b60405180910390fd5b6000825111620002975760405162461bcd60e51b815260206004820152601a60248201527f5061796d656e7453706c69747465723a206e6f2070617965657300000000000060448201526064016200023b565b60005b82518110156200031b5762000306838281518110620002c957634e487b7160e01b600052603260045260246000fd5b6020026020010151838381518110620002f257634e487b7160e01b600052603260045260246000fd5b6020026020010151620003f860201b60201c565b806200031281620009cf565b9150506200029a565b50508551620003339150601490602088019062000760565b5083516200034990601590602087019062000760565b506200035582620005e6565b620003608362000646565b600280546001600160a01b0319166001600160a01b03929092169190911790555062000a1992505050565b3390565b600080546001600160a01b038381166001600160a01b0319831681178455604051919092169283917f8be0079c531659141344cd1fd0a4f28419497f9722a3daafe3b4186f6b6457e09190a35050565b8051620003f490600790602084019062000760565b5050565b6001600160a01b038216620004655760405162461bcd60e51b815260206004820152602c60248201527f5061796d656e7453706c69747465723a206163636f756e74206973207468652060448201526b7a65726f206164647265737360a01b60648201526084016200023b565b60008111620004b75760405162461bcd60e51b815260206004820152601d60248201527f5061796d656e7453706c69747465723a2073686172657320617265203000000060448201526064016200023b565b6001600160a01b0382166000908152600e602052604090205415620005335760405162461bcd60e51b815260206004820152602b60248201527f5061796d656e7453706c69747465723a206163636f756e7420616c726561647960448201526a206861732073686172657360a81b60648201526084016200023b565b60108054600181019091557f1b6847dc741a1b0cd08d278845f9d819d87b734759afb55fe2de5cb82a9ae6720180546001600160a01b0319166001600160a01b0384169081179091556000908152600e60205260409020819055600c546200059d90829062000977565b600c55604080516001600160a01b0384168152602081018390527f40c340f65e17194d14ddddb073d3c9f888e3cb52b5aae0c6c7706b4fbc905fac910160405180910390a15050565b6000546001600160a01b03163314620006315760405162461bcd60e51b815260206004820181905260248201526000805160206200596583398151915260448201526064016200023b565b8051620003f490600a90602084019062000760565b6000546001600160a01b03163314620006915760405162461bcd60e51b815260206004820181905260248201526000805160206200596583398151915260448201526064016200023b565b600b80546001600160a01b0319166001600160a01b0392909216919091179055565b8280548282559060005260206000209081019282156200070b579160200282015b828111156200070b57825182546001600160a01b0319166001600160a01b03909116178255602090920191600190910190620006d4565b5062000719929150620007dd565b5090565b8280548282559060005260206000209081019282156200070b579160200282015b828111156200070b578251829060ff169055916020019190600101906200073e565b8280546200076e9062000992565b90600052602060002090601f0160209004810192826200079257600085556200070b565b82601f10620007ad57805160ff19168380011785556200070b565b828001600101855582156200070b579182015b828111156200070b578251825591602001919060010190620007c0565b5b80821115620007195760008155600101620007de565b80516001600160a01b03811681146200080c57600080fd5b919050565b600082601f83011262000822578081fd5b81516001600160401b03808211156200083f576200083f62000a03565b604051601f8301601f19908116603f011681019082821181831017156200086a576200086a62000a03565b8160405283815260209250868385880101111562000886578485fd5b8491505b83821015620008a957858201830151818301840152908201906200088a565b83821115620008ba57848385830101525b9695505050505050565b600080600080600060a08688031215620008dc578081fd5b85516001600160401b0380821115620008f3578283fd5b6200090189838a0162000811565b9650602088015191508082111562000917578283fd5b6200092589838a0162000811565b95506200093560408901620007f4565b945060608801519150808211156200094b578283fd5b506200095a8882890162000811565b9250506200096b60808701620007f4565b90509295509295909350565b600082198211156200098d576200098d620009ed565b500190565b600181811c90821680620009a757607f821691505b60208210811415620009c957634e487b7160e01b600052602260045260246000fd5b50919050565b6000600019821415620009e657620009e6620009ed565b5060010190565b634e487b7160e01b600052601160045260246000fd5b634e487b7160e01b600052604160045260246000fd5b614f3c8062000a296000396000f3fe6080604052600436106102955760003560e01c80638da5cb5b1161015a578063ce7c2ac2116100c1578063e985e9c51161007a578063e985e9c5146108d5578063eb8d72b71461091e578063f242432a1461093e578063f2fde38b1461095e578063f3234f401461097e578063fe9fbb801461099457600080fd5b8063ce7c2ac21461080e578063cfa9849d14610844578063d1deba1f14610857578063d79779b21461086a578063d83318ca146108a0578063e33b7de3146108c057600080fd5b8063a924c04311610113578063a924c0431461074c578063ad7828701461076c578063b42394f11461078c578063bc63f02e146107a1578063bd85b039146107c1578063be47aa09146107ee57600080fd5b80638da5cb5b146106385780638ee7491214610656578063943fb872146106c157806395d89b41146106e15780639852595c146106f6578063a22cb4651461072c57600080fd5b80634044556d116101fe5780636c19e783116101b75780636c19e78314610576578063715018a6146105965780637533d788146105ab57806377241706146105cb5780637ed6c926146105e05780638b83209b1461060057600080fd5b80634044556d14610472578063406072a91461049257806348b75044146104d85780634e1273f4146104f85780634f558e79146105255780634f64b2be1461054557600080fd5b8063191655871161025057806319165587146103ca5780631c37a822146103ea57806321718a161461040a5780632eb2c2d61461042a57806338926b6d1461044a5780633a98ef391461045d57600080fd5b80621d3567146102e3578062fdd58e1461030557806301ffc9a71461033857806306fdde03146103685780630961e9291461038a5780630e89341c146103aa57600080fd5b366102de577f6ef95f06320e7a25a04a175ca677b7052bdd97131872c2192525a629f51be77033604080516001600160a01b0390921682523460208301520160405180910390a1005b600080fd5b3480156102ef57600080fd5b506103036102fe366004614434565b6109cd565b005b34801561031157600080fd5b50610325610320366004614114565b610bc7565b6040519081526020015b60405180910390f35b34801561034457600080fd5b50610358610353366004614284565b610c5e565b604051901515815260200161032f565b34801561037457600080fd5b5061037d610cae565b60405161032f9190614880565b34801561039657600080fd5b506103036103a5366004614524565b610d3c565b3480156103b657600080fd5b5061037d6103c53660046144d0565b610e28565b3480156103d657600080fd5b506103036103e5366004613f57565b610f19565b3480156103f657600080fd5b50610303610405366004614434565b611047565b34801561041657600080fd5b506103036104253660046145a6565b6110b6565b34801561043657600080fd5b50610303610445366004613fd8565b611130565b6103036104583660046145a6565b6111c7565b34801561046957600080fd5b50600c54610325565b34801561047e57600080fd5b5061035861048d3660046144d0565b61142a565b34801561049e57600080fd5b506103256104ad366004613fa0565b6001600160a01b03918216600090815260126020908152604080832093909416825291909152205490565b3480156104e457600080fd5b506103036104f3366004613fa0565b6114a2565b34801561050457600080fd5b5061051861051336600461413f565b61168a565b60405161032f91906147ee565b34801561053157600080fd5b506103586105403660046144d0565b6117eb565b34801561055157600080fd5b506105656105603660046144d0565b6117fe565b60405161032f95949392919061482f565b34801561058257600080fd5b50610303610591366004613f57565b6118c6565b3480156105a257600080fd5b50610303611912565b3480156105b757600080fd5b5061037d6105c63660046142ee565b611948565b3480156105d757600080fd5b50610325611961565b3480156105ec57600080fd5b506103036105fb3660046142bc565b611971565b34801561060c57600080fd5b5061062061061b3660046144d0565b6119b2565b6040516001600160a01b03909116815260200161032f565b34801561064457600080fd5b506000546001600160a01b0316610620565b34801561066257600080fd5b506106ac610671366004614358565b600360209081526000938452604080852084518086018401805192815290840195840195909520945292905282529020805460019091015482565b6040805192835260208301919091520161032f565b3480156106cd57600080fd5b506103036106dc3660046144d0565b6119f0565b3480156106ed57600080fd5b5061037d611a1f565b34801561070257600080fd5b50610325610711366004613f57565b6001600160a01b03166000908152600f602052604090205490565b34801561073857600080fd5b506103036107473660046140e7565b611a2c565b34801561075857600080fd5b50610303610767366004613f57565b611a37565b34801561077857600080fd5b50610303610787366004614227565b611b0e565b34801561079857600080fd5b50610518611b50565b3480156107ad57600080fd5b506103036107bc366004614500565b611c0d565b3480156107cd57600080fd5b506103256107dc3660046144d0565b60009081526008602052604090205490565b3480156107fa57600080fd5b50610303610809366004613f57565b611cad565b34801561081a57600080fd5b50610325610829366004613f57565b6001600160a01b03166000908152600e602052604090205490565b6103036108523660046144b5565b611d7c565b6103036108653660046143ac565b61213c565b34801561087657600080fd5b50610325610885366004613f57565b6001600160a01b031660009081526011602052604090205490565b3480156108ac57600080fd5b506103586108bb366004614500565b6122c9565b3480156108cc57600080fd5b50600d54610325565b3480156108e157600080fd5b506103586108f0366004613fa0565b6001600160a01b03918216600090815260066020908152604080832093909416825291909152205460ff1690565b34801561092a57600080fd5b50610303610939366004614308565b61236b565b34801561094a57600080fd5b50610303610959366004614081565b6123b3565b34801561096a57600080fd5b50610303610979366004613f57565b61243a565b34801561098a57600080fd5b5061032560095481565b3480156109a057600080fd5b506103586109af366004613f57565b6001600160a01b031660009081526001602052604090205460ff1690565b6002546001600160a01b031633146109e457600080fd5b61ffff841660009081526004602052604090208054610a0290614d5a565b90508351148015610a41575061ffff8416600090815260046020526040908190209051610a2f919061474a565b60405180910390208380519060200120145b610aaf5760405162461bcd60e51b815260206004820152603460248201527f4e6f6e626c6f636b696e6752656365697665723a20696e76616c696420736f756044820152731c98d9481cd95b991a5b99c818dbdb9d1c9858dd60621b60648201526084015b60405180910390fd5b604051630e1bd41160e11b81523090631c37a82290610ad8908790879087908790600401614b8f565b600060405180830381600087803b158015610af257600080fd5b505af1925050508015610b03575060015b610bc1576040518060400160405280825181526020018280519060200120815250600360008661ffff1661ffff16815260200190815260200160002084604051610b4d919061472e565b9081526040805191829003602090810183206001600160401b038716600090815290825291909120835181559201516001909201919091557fe6f254030bcb01ffd20558175c13fcaed6d1520be7becee4c961b65f79243b0d90610bb8908690869086908690614b8f565b60405180910390a15b50505050565b60006001600160a01b038316610c335760405162461bcd60e51b815260206004820152602b60248201527f455243313135353a2062616c616e636520717565727920666f7220746865207a60448201526a65726f206164647265737360a81b6064820152608401610aa6565b5060008181526005602090815260408083206001600160a01b03861684529091529020545b92915050565b60006001600160e01b03198216636cdb3d1360e11b1480610c8f57506001600160e01b031982166303a24d0760e21b145b80610c5857506301ffc9a760e01b6001600160e01b0319831614610c58565b60148054610cbb90614d5a565b80601f0160208091040260200160405190810160405280929190818152602001828054610ce790614d5a565b8015610d345780601f10610d0957610100808354040283529160200191610d34565b820191906000526020600020905b815481529060010190602001808311610d1757829003601f168201915b505050505081565b3360009081526001602052604090205460ff16610d6b5760405162461bcd60e51b8152600401610aa690614921565b610d74866117eb565b610d905760405162461bcd60e51b8152600401610aa690614a67565b6000868152601660205260409020805486151560ff198216811783558691839161ff00191661ffff1990911617610100836002811115610de057634e487b7160e01b600052602160045260246000fd5b0217905550600181018490556002810180546001600160a01b0319166001600160a01b0385161790558151610e1e9060038301906020850190613cec565b5050505050505050565b6060610e33826117eb565b610e785760405162461bcd60e51b81526020600482015260166024820152752aa9249d103737b732bc34b9ba32b73a103a37b5b2b760511b6044820152606401610aa6565b60008281526016602052604090206003018054610e9490614d5a565b80601f0160208091040260200160405190810160405280929190818152602001828054610ec090614d5a565b8015610f0d5780601f10610ee257610100808354040283529160200191610f0d565b820191906000526020600020905b815481529060010190602001808311610ef057829003601f168201915b50505050509050919050565b6001600160a01b0381166000908152600e6020526040902054610f4e5760405162461bcd60e51b8152600401610aa6906148db565b6000610f59600d5490565b610f639047614ccc565b90506000610f908383610f8b866001600160a01b03166000908152600f602052604090205490565b612496565b905080610faf5760405162461bcd60e51b8152600401610aa690614958565b6001600160a01b0383166000908152600f602052604081208054839290610fd7908490614ccc565b9250508190555080600d6000828254610ff09190614ccc565b90915550611000905083826124de565b604080516001600160a01b0385168152602081018390527fdf20fd1e76bc69d672e4814fafb2c449bba3a5369d8359adf9e05e6fde87b056910160405180910390a1505050565b3330146110aa5760405162461bcd60e51b815260206004820152602b60248201527f4e6f6e626c6f636b696e6752656365697665723a2063616c6c6572206d75737460448201526a10313290213934b233b29760a91b6064820152608401610aa6565b610bc1848484846125f7565b3360009081526001602052604090205460ff166110e55760405162461bcd60e51b8152600401610aa690614921565b6110ee826117eb565b61110a5760405162461bcd60e51b8152600401610aa690614a67565b600082815260166020908152604090912082519091610bc1916003840191850190613cec565b6001600160a01b03851633148061114c575061114c85336108f0565b6111b35760405162461bcd60e51b815260206004820152603260248201527f455243313135353a207472616e736665722063616c6c6572206973206e6f74206044820152711bdddb995c881b9bdc88185c1c1c9bdd995960721b6064820152608401610aa6565b6111c08585858585612673565b5050505050565b6111d0826117eb565b61121c5760405162461bcd60e51b815260206004820152601b60248201527f436c61696d3a20746f6b656e20646f6573206e6f7420657869737400000000006044820152606401610aa6565b6112258261142a565b6112695760405162461bcd60e51b815260206004820152601560248201527410db185a5b4e881cd85b19481a5cc818db1bdcd959605a1b6044820152606401610aa6565b61127382336122c9565b156112ce5760405162461bcd60e51b815260206004820152602560248201527f436c61696d3a204e465420616c726561647920636c61696d6564206279206164604482015264647265737360d81b6064820152608401610aa6565b6112d88282612875565b61132f5760405162461bcd60e51b815260206004820152602260248201527f436c61696d3a2053657276657220566572696669636174696f6e204661696c65604482015261321760f11b6064820152608401610aa6565b61133982336128b7565b6113975760405162461bcd60e51b815260206004820152602960248201527f436c61696d3a204164647265737320646f6573206e6f74206f776e20726571756044820152681a5cda5d194813919560ba1b6064820152608401610aa6565b60008281526016602090815260408083203380855260049091018352818420805460ff1916600190811790915582519384019092529282526113dc92918591906129af565b33827f4ec90e965519d92681267467f775ada5bd214aa92c0dc93d90a5e880ce9ed0266114158260009081526008602052604090205490565b60405190815260200160405180910390a35050565b6000611435826117eb565b61148c5760405162461bcd60e51b815260206004820152602260248201527f697353616c65436c6f7365643a20746f6b656e20646f6573206e6f74206578696044820152611cdd60f21b6064820152608401610aa6565b5060009081526016602052604090205460ff1690565b6001600160a01b0381166000908152600e60205260409020546114d75760405162461bcd60e51b8152600401610aa6906148db565b6001600160a01b0382166000908152601160205260408120546040516370a0823160e01b81523060048201526001600160a01b038516906370a082319060240160206040518083038186803b15801561152f57600080fd5b505afa158015611543573d6000803e3d6000fd5b505050506040513d601f19601f8201168201806040525081019061156791906144e8565b6115719190614ccc565b905060006115aa8383610f8b87876001600160a01b03918216600090815260126020908152604080832093909416825291909152205490565b9050806115c95760405162461bcd60e51b8152600401610aa690614958565b6001600160a01b03808516600090815260126020908152604080832093871683529290529081208054839290611600908490614ccc565b90915550506001600160a01b0384166000908152601160205260408120805483929061162d908490614ccc565b9091555061163e9050848483612ad4565b604080516001600160a01b038581168252602082018490528616917f3be5b7a71e84ed12875d241991c70855ac5817d847039e17a9d895c1ceb0f18a910160405180910390a250505050565b606081518351146116ef5760405162461bcd60e51b815260206004820152602960248201527f455243313135353a206163636f756e747320616e6420696473206c656e677468604482015268040dad2e6dac2e8c6d60bb1b6064820152608401610aa6565b600083516001600160401b0381111561171857634e487b7160e01b600052604160045260246000fd5b604051908082528060200260200182016040528015611741578160200160208202803683370190505b50905060005b84518110156117e3576117a885828151811061177357634e487b7160e01b600052603260045260246000fd5b602002602001015185838151811061179b57634e487b7160e01b600052603260045260246000fd5b6020026020010151610bc7565b8282815181106117c857634e487b7160e01b600052603260045260246000fd5b60209081029190910101526117dc81614dbb565b9050611747565b509392505050565b6000816117f760135490565b1192915050565b601660205260009081526040902080546001820154600283015460038401805460ff8086169661010090960416946001600160a01b0390931692919061184390614d5a565b80601f016020809104026020016040519081016040528092919081815260200182805461186f90614d5a565b80156118bc5780601f10611891576101008083540402835291602001916118bc565b820191906000526020600020905b81548152906001019060200180831161189f57829003601f168201915b5050505050905085565b6000546001600160a01b031633146118f05760405162461bcd60e51b8152600401610aa690614a32565b600b80546001600160a01b0319166001600160a01b0392909216919091179055565b6000546001600160a01b0316331461193c5760405162461bcd60e51b8152600401610aa690614a32565b6119466000612b26565b565b60046020526000908152604090208054610cbb90614d5a565b600061196c60135490565b905090565b6000546001600160a01b0316331461199b5760405162461bcd60e51b8152600401610aa690614a32565b80516119ae90600a906020840190613cec565b5050565b6000601082815481106119d557634e487b7160e01b600052603260045260246000fd5b6000918252602090912001546001600160a01b031692915050565b6000546001600160a01b03163314611a1a5760405162461bcd60e51b8152600401610aa690614a32565b600955565b60158054610cbb90614d5a565b6119ae338383612b76565b6000546001600160a01b03163314611a615760405162461bcd60e51b8152600401610aa690614a32565b6001600160a01b03811660009081526001602052604090205460ff1615611ae75760405162461bcd60e51b815260206004820152603460248201527f616464417574686f72697a65644163636f756e743a204163636f756e742069736044820152731030b63932b0b23c9030baba3437b934bd32b21760611b6064820152608401610aa6565b6001600160a01b03166000908152600160208190526040909120805460ff19169091179055565b3360009081526001602052604090205460ff16611b3d5760405162461bcd60e51b8152600401610aa690614921565b611b4b838360008085612c57565b505050565b60606000611b5d60135490565b6001600160401b03811115611b8257634e487b7160e01b600052604160045260246000fd5b604051908082528060200260200182016040528015611bab578160200160208202803683370190505b50905060005b601354811015611c0757600081815260086020526040902054828281518110611bea57634e487b7160e01b600052603260045260246000fd5b602090810291909101015280611bff81614dbb565b915050611bb1565b50919050565b3360009081526001602052604090205460ff16611c3c5760405162461bcd60e51b8152600401610aa690614921565b611c45826117eb565b611c915760405162461bcd60e51b815260206004820152601d60248201527f61697264726f703a20746f6b656e20646f6573206e6f742065786973740000006044820152606401610aa6565b6119ae81836001604051806020016040528060008152506129af565b6000546001600160a01b03163314611cd75760405162461bcd60e51b8152600401610aa690614a32565b6001600160a01b03811660009081526001602052604090205460ff16611d5b5760405162461bcd60e51b815260206004820152603360248201527f72656d6f7665417574686f72697a65644163636f756e743a204163636f756e746044820152721034b9903737ba1030baba3437b934bd32b21760691b6064820152608401610aa6565b6001600160a01b03166000908152600160205260409020805460ff19169055565b6000611d883383610bc7565b11611df05760405162461bcd60e51b815260206004820152603260248201527f5472617665727365436861696e3a20596f75206d757374206f776e207468697360448201527120746f6b656e20746f20747261766572736560701b6064820152608401610aa6565b61ffff821660009081526004602052604090208054611e0e90614d5a565b15159050611e845760405162461bcd60e51b815260206004820152603d60248201527f5472617665727365436861696e3a205468697320636861696e2069732063757260448201527f72656e746c7920756e617661696c61626c6520666f722074726176656c0000006064820152608401610aa6565b468261ffff161415611f00576040805162461bcd60e51b81526020600482015260248101919091527f5472617665727365436861696e3a2044657374696e6174696f6e20626c6f636b60448201527f6861696e2063616e2774206265207468652073616d6520617320736f757263656064820152608401610aa6565b611f0c33826001612d09565b60408051336020820152808201839052815180820383018152606082018352600954600160f01b60808401526082808401919091528351808403909101815260a283019384905260025463040a7bb160e41b90945290926001926000916001600160a01b0316906340a7bb1090611f8f908990309089908790899060a601614aa9565b604080518083038186803b158015611fa657600080fd5b505afa158015611fba573d6000803e3d6000fd5b505050506040513d601f19601f82011682018060405250810190611fde91906145e0565b5090507f5b6dd3cd292e9992e63f15316b4cff04aa4a1b86b888b7a53cbfa83a92916cce8160405161201291815260200190565b60405180910390a1803410156120b65760405162461bcd60e51b815260206004820152605a60248201527f5472617665727365436861696e3a2076616c75652073656e74206973206e6f7460448201527f20656e6f75676820746f20636f766572206d6573736167654665652e20496e6360648201527f72656173652067617320666f72206d6573736167652066656573000000000000608482015260a401610aa6565b60025461ffff87166000908152600460208190526040808320905162c5803160e81b81526001600160a01b039094169363c5803100933493612102938d9390928c9233928c9101614bcd565b6000604051808303818588803b15801561211b57600080fd5b505af115801561212f573d6000803e3d6000fd5b5050505050505050505050565b61ffff8516600090815260036020526040808220905161215d90879061472e565b90815260408051602092819003830190206001600160401b03871660009081529252902060018101549091506121e45760405162461bcd60e51b815260206004820152602660248201527f4e6f6e626c6f636b696e6752656365697665723a206e6f2073746f726564206d60448201526565737361676560d01b6064820152608401610aa6565b80548214801561220e57508060010154838360405161220492919061471e565b6040518091039020145b61225a5760405162461bcd60e51b815260206004820152601a60248201527f4c617965725a65726f3a20696e76616c6964207061796c6f61640000000000006044820152606401610aa6565b60008082556001820155604051630e1bd41160e11b81523090631c37a8229061228f9089908990899089908990600401614b2f565b600060405180830381600087803b1580156122a957600080fd5b505af11580156122bd573d6000803e3d6000fd5b50505050505050505050565b60006122d4836117eb565b61232c5760405162461bcd60e51b8152602060048201526024808201527f636865636b4966436c61696d65643a20746f6b656e20646f6573206e6f7420656044820152631e1a5cdd60e21b6064820152608401610aa6565b60008381526016602090815260408083206001600160a01b038616845260040190915290205460ff161561236257506001610c58565b50600092915050565b6000546001600160a01b031633146123955760405162461bcd60e51b8152600401610aa690614a32565b61ffff83166000908152600460205260409020610bc1908383613d70565b6001600160a01b0385163314806123cf57506123cf85336108f0565b61242d5760405162461bcd60e51b815260206004820152602960248201527f455243313135353a2063616c6c6572206973206e6f74206f776e6572206e6f7260448201526808185c1c1c9bdd995960ba1b6064820152608401610aa6565b6111c08585858585612e9d565b6000546001600160a01b031633146124645760405162461bcd60e51b8152600401610aa690614a32565b6001600160a01b0381166000908152600160208190526040909120805460ff1916909117905561249381612fd9565b50565b600c546001600160a01b0384166000908152600e6020526040812054909183916124c09086614cf8565b6124ca9190614ce4565b6124d49190614d17565b90505b9392505050565b8047101561252e5760405162461bcd60e51b815260206004820152601d60248201527f416464726573733a20696e73756666696369656e742062616c616e63650000006044820152606401610aa6565b6000826001600160a01b03168260405160006040518083038185875af1925050503d806000811461257b576040519150601f19603f3d011682016040523d82523d6000602084013e612580565b606091505b5050905080611b4b5760405162461bcd60e51b815260206004820152603a60248201527f416464726573733a20756e61626c6520746f2073656e642076616c75652c207260448201527f6563697069656e74206d617920686176652072657665727465640000000000006064820152608401610aa6565b6000808280602001905181019061260e9190613f73565b915091507f8907acb071a04e4771f0aefe2cd026f2ceb820d8ceb32f566be3066b0e4f3ae7868683856040516126479493929190614af1565b60405180910390a161266b82826001604051806020016040528060008152506129af565b505050505050565b81518351146126d55760405162461bcd60e51b815260206004820152602860248201527f455243313135353a2069647320616e6420616d6f756e7473206c656e677468206044820152670dad2e6dac2e8c6d60c31b6064820152608401610aa6565b6001600160a01b0384166126fb5760405162461bcd60e51b8152600401610aa6906149a3565b3361270a818787878787613071565b60005b845181101561280f57600085828151811061273857634e487b7160e01b600052603260045260246000fd5b60200260200101519050600085838151811061276457634e487b7160e01b600052603260045260246000fd5b60209081029190910181015160008481526005835260408082206001600160a01b038e1683529093529190912054909150818110156127b55760405162461bcd60e51b8152600401610aa6906149e8565b60008381526005602090815260408083206001600160a01b038e8116855292528083208585039055908b168252812080548492906127f4908490614ccc565b925050819055505050508061280890614dbb565b905061270d565b50846001600160a01b0316866001600160a01b0316826001600160a01b03167f4a39dc06d4c0dbc64b70af90fd698a233a518aa5d07e595d983b8c0526c8f7fb878760405161285f929190614801565b60405180910390a461266b818787878787613222565b60008061288a6128848561338d565b846134ae565b600b549091506001600160a01b03808316911614156128ad576001915050610c58565b5060009392505050565b600082815260166020526040812054610100900460ff16818160028111156128ef57634e487b7160e01b600052602160045260246000fd5b14156128ff576001915050610c58565b600181600281111561292157634e487b7160e01b600052602160045260246000fd5b141561295957600084815260166020526040812060010154612944908590610bc7565b1115612954576001915050610c58565b6128ad565b600281600281111561297b57634e487b7160e01b600052602160045260246000fd5b14156128ad576000848152601660205260409020600201546129a79084906001600160a01b03166134cf565b915050610c58565b6001600160a01b038416612a0f5760405162461bcd60e51b815260206004820152602160248201527f455243313135353a206d696e7420746f20746865207a65726f206164647265736044820152607360f81b6064820152608401610aa6565b336000612a1b85613559565b90506000612a2885613559565b9050612a3983600089858589613071565b60008681526005602090815260408083206001600160a01b038b16845290915281208054879290612a6b908490614ccc565b909155505060408051878152602081018790526001600160a01b03808a1692600092918716917fc3d58168c5ae7397731d063d5bbf3d657854427343f4c083240f7aacaa2d0f62910160405180910390a4612acb836000898989896135b2565b50505050505050565b604080516001600160a01b038416602482015260448082018490528251808303909101815260649091019091526020810180516001600160e01b031663a9059cbb60e01b179052611b4b90849061367c565b600080546001600160a01b038381166001600160a01b0319831681178455604051919092169283917f8be0079c531659141344cd1fd0a4f28419497f9722a3daafe3b4186f6b6457e09190a35050565b816001600160a01b0316836001600160a01b03161415612bea5760405162461bcd60e51b815260206004820152602960248201527f455243313135353a2073657474696e6720617070726f76616c20737461747573604482015268103337b91039b2b63360b91b6064820152608401610aa6565b6001600160a01b03838116600081815260066020908152604080832094871680845294825291829020805460ff191686151590811790915591519182527f17307eab39ab6107e8899845ad3d59bd9653f200f220920489ca2b5937696c31910160405180910390a3505050565b600060166000612c6660135490565b81526020810191909152604001600020805460ff19811688151590811783559192508691839161ffff191661ff001990911617610100836002811115612cbc57634e487b7160e01b600052602160045260246000fd5b0217905550600181018490556002810180546001600160a01b0319166001600160a01b0385161790558151612cfa9060038301906020850190613cec565b5061266b601380546001019055565b6001600160a01b038316612d6b5760405162461bcd60e51b815260206004820152602360248201527f455243313135353a206275726e2066726f6d20746865207a65726f206164647260448201526265737360e81b6064820152608401610aa6565b336000612d7784613559565b90506000612d8484613559565b9050612da483876000858560405180602001604052806000815250613071565b60008581526005602090815260408083206001600160a01b038a16845290915290205484811015612e235760405162461bcd60e51b8152602060048201526024808201527f455243313135353a206275726e20616d6f756e7420657863656564732062616c604482015263616e636560e01b6064820152608401610aa6565b60008681526005602090815260408083206001600160a01b038b81168086529184528285208a8703905582518b81529384018a90529092908816917fc3d58168c5ae7397731d063d5bbf3d657854427343f4c083240f7aacaa2d0f62910160405180910390a4604080516020810190915260009052612acb565b6001600160a01b038416612ec35760405162461bcd60e51b8152600401610aa6906149a3565b336000612ecf85613559565b90506000612edc85613559565b9050612eec838989858589613071565b60008681526005602090815260408083206001600160a01b038c16845290915290205485811015612f2f5760405162461bcd60e51b8152600401610aa6906149e8565b60008781526005602090815260408083206001600160a01b038d8116855292528083208985039055908a16825281208054889290612f6e908490614ccc565b909155505060408051888152602081018890526001600160a01b03808b16928c821692918816917fc3d58168c5ae7397731d063d5bbf3d657854427343f4c083240f7aacaa2d0f62910160405180910390a4612fce848a8a8a8a8a6135b2565b505050505050505050565b6000546001600160a01b031633146130035760405162461bcd60e51b8152600401610aa690614a32565b6001600160a01b0381166130685760405162461bcd60e51b815260206004820152602660248201527f4f776e61626c653a206e6577206f776e657220697320746865207a65726f206160448201526564647265737360d01b6064820152608401610aa6565b61249381612b26565b6001600160a01b0385166131145760005b8351811015613112578281815181106130ab57634e487b7160e01b600052603260045260246000fd5b6020026020010151600860008684815181106130d757634e487b7160e01b600052603260045260246000fd5b6020026020010151815260200190815260200160002060008282546130fc9190614ccc565b9091555061310b905081614dbb565b9050613082565b505b6001600160a01b03841661266b5760005b8351811015612acb57600084828151811061315057634e487b7160e01b600052603260045260246000fd5b60200260200101519050600084838151811061317c57634e487b7160e01b600052603260045260246000fd5b60200260200101519050600060086000848152602001908152602001600020549050818110156131ff5760405162461bcd60e51b815260206004820152602860248201527f455243313135353a206275726e20616d6f756e74206578636565647320746f74604482015267616c537570706c7960c01b6064820152608401610aa6565b6000928352600860205260409092209103905561321b81614dbb565b9050613125565b6001600160a01b0384163b1561266b5760405163bc197c8160e01b81526001600160a01b0385169063bc197c81906132669089908990889088908890600401614756565b602060405180830381600087803b15801561328057600080fd5b505af19250505080156132b0575060408051601f3d908101601f191682019092526132ad918101906142a0565b60015b61335d576132bc614e2c565b806308c379a014156132f657506132d1614e44565b806132dc57506132f8565b8060405162461bcd60e51b8152600401610aa69190614880565b505b60405162461bcd60e51b815260206004820152603460248201527f455243313135353a207472616e7366657220746f206e6f6e20455243313135356044820152732932b1b2b4bb32b91034b6b83632b6b2b73a32b960611b6064820152608401610aa6565b6001600160e01b0319811663bc197c8160e01b14612acb5760405162461bcd60e51b8152600401610aa690614893565b6060816133b15750506040805180820190915260018152600360fc1b602082015290565b8160005b81156133db57806133c581614dbb565b91506133d49050600a83614ce4565b91506133b5565b6000816001600160401b0381111561340357634e487b7160e01b600052604160045260246000fd5b6040519080825280601f01601f19166020018201604052801561342d576020820181803683370190505b5090505b84156134a657613442600183614d17565b915061344f600a86614dd6565b61345a906030614ccc565b60f81b81838151811061347d57634e487b7160e01b600052603260045260246000fd5b60200101906001600160f81b031916908160001a90535061349f600a86614ce4565b9450613431565b949350505050565b6000806134ba8461374e565b90506134a6836134c983613785565b906137c0565b6040516370a0823160e01b81526001600160a01b03838116600483015260009183918391908316906370a082319060240160206040518083038186803b15801561351857600080fd5b505afa15801561352c573d6000803e3d6000fd5b505050506040513d601f19601f8201168201806040525081019061355091906144e8565b11949350505050565b604080516001808252818301909252606091600091906020808301908036833701905050905082816000815181106135a157634e487b7160e01b600052603260045260246000fd5b602090810291909101015292915050565b6001600160a01b0384163b1561266b5760405163f23a6e6160e01b81526001600160a01b0385169063f23a6e61906135f690899089908890889088906004016147b4565b602060405180830381600087803b15801561361057600080fd5b505af1925050508015613640575060408051601f3d908101601f1916820190925261363d918101906142a0565b60015b61364c576132bc614e2c565b6001600160e01b0319811663f23a6e6160e01b14612acb5760405162461bcd60e51b8152600401610aa690614893565b60006136d1826040518060400160405280602081526020017f5361666545524332303a206c6f772d6c6576656c2063616c6c206661696c6564815250856001600160a01b03166137dc9092919063ffffffff16565b805190915015611b4b57808060200190518101906136ef919061420b565b611b4b5760405162461bcd60e51b815260206004820152602a60248201527f5361666545524332303a204552433230206f7065726174696f6e20646964206e6044820152691bdd081cdd58d8d9595960b21b6064820152608401610aa6565b6000303383600a60405160200161376894939291906146d8565b604051602081830303815290604052805190602001209050919050565b6040517f19457468657265756d205369676e6564204d6573736167653a0a3332000000006020820152603c8101829052600090605c01613768565b60008060006137cf85856137eb565b915091506117e38161385b565b60606124d48484600085613a5c565b6000808251604114156138225760208301516040840151606085015160001a61381687828585613b8d565b94509450505050613854565b82516040141561384c5760208301516040840151613841868383613c7a565b935093505050613854565b506000905060025b9250929050565b600081600481111561387d57634e487b7160e01b600052602160045260246000fd5b14156138865750565b60018160048111156138a857634e487b7160e01b600052602160045260246000fd5b14156138f65760405162461bcd60e51b815260206004820152601860248201527f45434453413a20696e76616c6964207369676e617475726500000000000000006044820152606401610aa6565b600281600481111561391857634e487b7160e01b600052602160045260246000fd5b14156139665760405162461bcd60e51b815260206004820152601f60248201527f45434453413a20696e76616c6964207369676e6174757265206c656e677468006044820152606401610aa6565b600381600481111561398857634e487b7160e01b600052602160045260246000fd5b14156139e15760405162461bcd60e51b815260206004820152602260248201527f45434453413a20696e76616c6964207369676e6174757265202773272076616c604482015261756560f01b6064820152608401610aa6565b6004816004811115613a0357634e487b7160e01b600052602160045260246000fd5b14156124935760405162461bcd60e51b815260206004820152602260248201527f45434453413a20696e76616c6964207369676e6174757265202776272076616c604482015261756560f01b6064820152608401610aa6565b606082471015613abd5760405162461bcd60e51b815260206004820152602660248201527f416464726573733a20696e73756666696369656e742062616c616e636520666f6044820152651c8818d85b1b60d21b6064820152608401610aa6565b6001600160a01b0385163b613b145760405162461bcd60e51b815260206004820152601d60248201527f416464726573733a2063616c6c20746f206e6f6e2d636f6e74726163740000006044820152606401610aa6565b600080866001600160a01b03168587604051613b30919061472e565b60006040518083038185875af1925050503d8060008114613b6d576040519150601f19603f3d011682016040523d82523d6000602084013e613b72565b606091505b5091509150613b82828286613cb3565b979650505050505050565b6000807f7fffffffffffffffffffffffffffffff5d576e7357a4501ddfe92f46681b20a0831115613bc45750600090506003613c71565b8460ff16601b14158015613bdc57508460ff16601c14155b15613bed5750600090506004613c71565b6040805160008082526020820180845289905260ff881692820192909252606081018690526080810185905260019060a0016020604051602081039080840390855afa158015613c41573d6000803e3d6000fd5b5050604051601f1901519150506001600160a01b038116613c6a57600060019250925050613c71565b9150600090505b94509492505050565b6000806001600160ff1b03831681613c9760ff86901c601b614ccc565b9050613ca587828885613b8d565b935093505050935093915050565b60608315613cc25750816124d7565b825115613cd25782518084602001fd5b8160405162461bcd60e51b8152600401610aa69190614880565b828054613cf890614d5a565b90600052602060002090601f016020900481019282613d1a5760008555613d60565b82601f10613d3357805160ff1916838001178555613d60565b82800160010185558215613d60579182015b82811115613d60578251825591602001919060010190613d45565b50613d6c929150613de4565b5090565b828054613d7c90614d5a565b90600052602060002090601f016020900481019282613d9e5760008555613d60565b82601f10613db75782800160ff19823516178555613d60565b82800160010185558215613d60579182015b82811115613d60578235825591602001919060010190613dc9565b5b80821115613d6c5760008155600101613de5565b600082601f830112613e09578081fd5b81356020613e1682614ca9565b604051613e238282614d8f565b8381528281019150858301600585901b87018401881015613e42578586fd5b855b85811015613e6057813584529284019290840190600101613e44565b5090979650505050505050565b60008083601f840112613e7e578182fd5b5081356001600160401b03811115613e94578182fd5b60208301915083602082850101111561385457600080fd5b600082601f830112613ebc578081fd5b81356001600160401b03811115613ed557613ed5614e16565b604051613eec601f8301601f191660200182614d8f565b818152846020838601011115613f00578283fd5b816020850160208301379081016020019190915292915050565b803560038110613f2957600080fd5b919050565b803561ffff81168114613f2957600080fd5b80356001600160401b0381168114613f2957600080fd5b600060208284031215613f68578081fd5b81356124d781614ecd565b60008060408385031215613f85578081fd5b8251613f9081614ecd565b6020939093015192949293505050565b60008060408385031215613fb2578182fd5b8235613fbd81614ecd565b91506020830135613fcd81614ecd565b809150509250929050565b600080600080600060a08688031215613fef578081fd5b8535613ffa81614ecd565b9450602086013561400a81614ecd565b935060408601356001600160401b0380821115614025578283fd5b61403189838a01613df9565b94506060880135915080821115614046578283fd5b61405289838a01613df9565b93506080880135915080821115614067578283fd5b5061407488828901613eac565b9150509295509295909350565b600080600080600060a08688031215614098578283fd5b85356140a381614ecd565b945060208601356140b381614ecd565b9350604086013592506060860135915060808601356001600160401b038111156140db578182fd5b61407488828901613eac565b600080604083850312156140f9578182fd5b823561410481614ecd565b91506020830135613fcd81614ee2565b60008060408385031215614126578182fd5b823561413181614ecd565b946020939093013593505050565b60008060408385031215614151578182fd5b82356001600160401b0380821115614167578384fd5b818501915085601f83011261417a578384fd5b8135602061418782614ca9565b6040516141948282614d8f565b8381528281019150858301600585901b870184018b10156141b3578889fd5b8896505b848710156141de5780356141ca81614ecd565b8352600196909601959183019183016141b7565b50965050860135925050808211156141f4578283fd5b5061420185828601613df9565b9150509250929050565b60006020828403121561421c578081fd5b81516124d781614ee2565b60008060006060848603121561423b578081fd5b833561424681614ee2565b925061425460208501613f1a565b915060408401356001600160401b0381111561426e578182fd5b61427a86828701613eac565b9150509250925092565b600060208284031215614295578081fd5b81356124d781614ef0565b6000602082840312156142b1578081fd5b81516124d781614ef0565b6000602082840312156142cd578081fd5b81356001600160401b038111156142e2578182fd5b6134a684828501613eac565b6000602082840312156142ff578081fd5b6124d782613f2e565b60008060006040848603121561431c578081fd5b61432584613f2e565b925060208401356001600160401b0381111561433f578182fd5b61434b86828701613e6d565b9497909650939450505050565b60008060006060848603121561436c578081fd5b61437584613f2e565b925060208401356001600160401b0381111561438f578182fd5b61439b86828701613eac565b925050604084013590509250925092565b6000806000806000608086880312156143c3578283fd5b6143cc86613f2e565b945060208601356001600160401b03808211156143e7578485fd5b6143f389838a01613eac565b955061440160408901613f40565b94506060880135915080821115614416578283fd5b5061442388828901613e6d565b969995985093965092949392505050565b60008060008060808587031215614449578182fd5b61445285613f2e565b935060208501356001600160401b038082111561446d578384fd5b61447988838901613eac565b945061448760408801613f40565b9350606087013591508082111561449c578283fd5b506144a987828801613eac565b91505092959194509250565b600080604083850312156144c7578182fd5b61413183613f2e565b6000602082840312156144e1578081fd5b5035919050565b6000602082840312156144f9578081fd5b5051919050565b60008060408385031215614512578182fd5b823591506020830135613fcd81614ecd565b60008060008060008060c0878903121561453c578384fd5b86359550602087013561454e81614ee2565b945061455c60408801613f1a565b935060608701359250608087013561457381614ecd565b915060a08701356001600160401b0381111561458d578182fd5b61459989828a01613eac565b9150509295509295509295565b600080604083850312156145b8578182fd5b8235915060208301356001600160401b038111156145d4578182fd5b61420185828601613eac565b600080604083850312156145f2578182fd5b505080516020909101519092909150565b6000815180845260208085019450808401835b8381101561463257815187529582019590820190600101614616565b509495945050505050565b60008151808452614655816020860160208601614d2e565b601f01601f19169290920160200192915050565b6000815461467681614d5a565b6001828116801561468e576001811461469f576146ce565b60ff198416875282870194506146ce565b8560005260208060002060005b858110156146c55781548a8201529084019082016146ac565b50505082870194505b5050505092915050565b60006bffffffffffffffffffffffff19808760601b168352808660601b16601484015250835161470f816028850160208801614d2e565b613b8260288285010185614669565b8183823760009101908152919050565b60008251614740818460208701614d2e565b9190910192915050565b60006124d78284614669565b6001600160a01b0386811682528516602082015260a06040820181905260009061478290830186614603565b82810360608401526147948186614603565b905082810360808401526147a8818561463d565b98975050505050505050565b6001600160a01b03868116825285166020820152604081018490526060810183905260a060808201819052600090613b829083018461463d565b6020815260006124d76020830184614603565b6040815260006148146040830185614603565b82810360208401526148268185614603565b95945050505050565b851515815260006003861061485257634e487b7160e01b81526021600452602481fd5b85602083015284604083015260018060a01b038416606083015260a06080830152613b8260a083018461463d565b6020815260006124d7602083018461463d565b60208082526028908201527f455243313135353a204552433131353552656365697665722072656a656374656040820152676420746f6b656e7360c01b606082015260800190565b60208082526026908201527f5061796d656e7453706c69747465723a206163636f756e7420686173206e6f2060408201526573686172657360d01b606082015260800190565b6020808252601f908201527f6f6e6c79417574686f72697a65643a20496e76616c6964206164647265737300604082015260600190565b6020808252602b908201527f5061796d656e7453706c69747465723a206163636f756e74206973206e6f742060408201526a191d59481c185e5b595b9d60aa1b606082015260800190565b60208082526025908201527f455243313135353a207472616e7366657220746f20746865207a65726f206164604082015264647265737360d81b606082015260800190565b6020808252602a908201527f455243313135353a20696e73756666696369656e742062616c616e636520666f60408201526939103a3930b739b332b960b11b606082015260800190565b6020808252818101527f4f776e61626c653a2063616c6c6572206973206e6f7420746865206f776e6572604082015260600190565b60208082526022908201527f45646974546f6b656e3a20546f6b656e20494420646f6573206e6f74206578696040820152611cdd60f21b606082015260800190565b61ffff861681526001600160a01b038516602082015260a060408201819052600090614ad79083018661463d565b841515606084015282810360808401526147a8818561463d565b61ffff85168152608060208201526000614b0e608083018661463d565b6040830194909452506001600160a01b039190911660609091015292915050565b61ffff86168152608060208201526000614b4c608083018761463d565b6001600160401b038616604084015282810360608401528381528385602083013781602085830101526020601f19601f8601168201019150509695505050505050565b61ffff85168152608060208201526000614bac608083018661463d565b6001600160401b03851660408401528281036060840152613b82818561463d565b61ffff871681526000602060c081840152818854614bea81614d5a565b8060c087015260e0600180841660008114614c0c5760018114614c2157614c4c565b60ff1985168984015261010089019550614c4c565b8d8852868820885b85811015614c445781548b8201860152908301908801614c29565b8a0184019650505b50505050508381036040850152614c63818961463d565b915050614c7b60608401876001600160a01b03169052565b6001600160a01b038516608084015282810360a0840152614c9c818561463d565b9998505050505050505050565b60006001600160401b03821115614cc257614cc2614e16565b5060051b60200190565b60008219821115614cdf57614cdf614dea565b500190565b600082614cf357614cf3614e00565b500490565b6000816000190483118215151615614d1257614d12614dea565b500290565b600082821015614d2957614d29614dea565b500390565b60005b83811015614d49578181015183820152602001614d31565b83811115610bc15750506000910152565b600181811c90821680614d6e57607f821691505b60208210811415611c0757634e487b7160e01b600052602260045260246000fd5b601f8201601f191681016001600160401b0381118282101715614db457614db4614e16565b6040525050565b6000600019821415614dcf57614dcf614dea565b5060010190565b600082614de557614de5614e00565b500690565b634e487b7160e01b600052601160045260246000fd5b634e487b7160e01b600052601260045260246000fd5b634e487b7160e01b600052604160045260246000fd5b600060033d1115614e4157600481823e5160e01c5b90565b600060443d1015614e525790565b6040516003193d81016004833e81513d6001600160401b038160248401118184111715614e8157505050505090565b8285019150815181811115614e995750505050505090565b843d8701016020828501011115614eb35750505050505090565b614ec260208286010187614d8f565b509095945050505050565b6001600160a01b038116811461249357600080fd5b801515811461249357600080fd5b6001600160e01b03198116811461249357600080fdfea2646970667358221220fac179ed73fb32ef5c29785f134a336477811f7d5d51306447b18d5a67ec71db64736f6c634300080400334f776e61626c653a2063616c6c6572206973206e6f7420746865206f776e6572",
  "linkReferences": {},
  "deployedLinkReferences": {}
}